{
  "_format": "hh-sol-artifact-1",
  "contractName": "Post",
  "sourceName": "contracts/Post.sol",
  "abi": [
    {
      "inputs": [],
      "stateMutability": "payable",
      "type": "constructor"
    },
    {
      "inputs": [
        {
          "internalType": "uint256",
          "name": "",
          "type": "uint256"
        }
      ],
      "name": "articles",
      "outputs": [
        {
          "internalType": "address",
          "name": "authorAddress",
          "type": "address"
        },
        {
          "internalType": "string",
          "name": "authorAlias",
          "type": "string"
        },
        {
          "internalType": "string",
          "name": "category",
          "type": "string"
        },
        {
          "internalType": "string",
          "name": "title",
          "type": "string"
        },
        {
          "internalType": "string",
          "name": "contentHash",
          "type": "string"
        },
        {
          "internalType": "string",
          "name": "imageHash",
          "type": "string"
        },
        {
          "internalType": "uint256",
          "name": "timestamp",
          "type": "uint256"
        },
        {
          "internalType": "uint256",
          "name": "articleId",
          "type": "uint256"
        }
      ],
      "stateMutability": "view",
      "type": "function"
    },
    {
      "inputs": [
        {
          "internalType": "address",
          "name": "",
          "type": "address"
        },
        {
          "internalType": "uint256",
          "name": "",
          "type": "uint256"
        }
      ],
      "name": "authorArticles",
      "outputs": [
        {
          "internalType": "uint256",
          "name": "",
          "type": "uint256"
        }
      ],
      "stateMutability": "view",
      "type": "function"
    },
    {
      "inputs": [
        {
          "internalType": "string",
          "name": "_authorAlias",
          "type": "string"
        },
        {
          "internalType": "string",
          "name": "_category",
          "type": "string"
        },
        {
          "internalType": "string",
          "name": "_title",
          "type": "string"
        },
        {
          "internalType": "string",
          "name": "_contentHash",
          "type": "string"
        },
        {
          "internalType": "string",
          "name": "_imageHash",
          "type": "string"
        }
      ],
      "name": "createPost",
      "outputs": [],
      "stateMutability": "nonpayable",
      "type": "function"
    },
    {
      "inputs": [
        {
          "internalType": "uint256",
          "name": "_postId",
          "type": "uint256"
        }
      ],
      "name": "deletePost",
      "outputs": [],
      "stateMutability": "nonpayable",
      "type": "function"
    },
    {
      "inputs": [
        {
          "internalType": "address",
          "name": "_authorAddress",
          "type": "address"
        }
      ],
      "name": "getAuthorArticleIds",
      "outputs": [
        {
          "internalType": "uint256[]",
          "name": "",
          "type": "uint256[]"
        }
      ],
      "stateMutability": "view",
      "type": "function"
    },
    {
      "inputs": [
        {
          "internalType": "uint256",
          "name": "_postId",
          "type": "uint256"
        }
      ],
      "name": "getPost",
      "outputs": [
        {
          "components": [
            {
              "internalType": "address",
              "name": "authorAddress",
              "type": "address"
            },
            {
              "internalType": "string",
              "name": "authorAlias",
              "type": "string"
            },
            {
              "internalType": "string",
              "name": "category",
              "type": "string"
            },
            {
              "internalType": "string",
              "name": "title",
              "type": "string"
            },
            {
              "internalType": "string",
              "name": "contentHash",
              "type": "string"
            },
            {
              "internalType": "string",
              "name": "imageHash",
              "type": "string"
            },
            {
              "internalType": "uint256",
              "name": "timestamp",
              "type": "uint256"
            },
            {
              "internalType": "uint256",
              "name": "articleId",
              "type": "uint256"
            }
          ],
          "internalType": "struct Post.Article",
          "name": "",
          "type": "tuple"
        }
      ],
      "stateMutability": "view",
      "type": "function"
    },
    {
      "inputs": [],
      "name": "postId",
      "outputs": [
        {
          "internalType": "uint256",
          "name": "",
          "type": "uint256"
        }
      ],
      "stateMutability": "view",
      "type": "function"
    },
    {
      "inputs": [
        {
          "internalType": "uint256",
          "name": "_postId",
          "type": "uint256"
        },
        {
          "internalType": "string",
          "name": "_title",
          "type": "string"
        },
        {
          "internalType": "string",
          "name": "_contentHash",
          "type": "string"
        }
      ],
      "name": "updatePost",
      "outputs": [],
      "stateMutability": "nonpayable",
      "type": "function"
    }
  ],
  "bytecode": "0x60806040526000805562030d4060048190555033600360006101000a81548173ffffffffffffffffffffffffffffffffffffffff021916908373ffffffffffffffffffffffffffffffffffffffff160217905550611c96806100626000396000f3fe608060405234801561001057600080fd5b50600436106100885760003560e01c806360a0ecda1161005b57806360a0ecda1461013957806366d1cac914610157578063edcfafe614610173578063fc446bb4146101aa57610088565b8063094cd5ee1461008d578063101a3cc4146100a95780632fdec788146100d957806340731c2414610109575b600080fd5b6100a760048036038101906100a2919061100f565b6101c6565b005b6100c360048036038101906100be919061109a565b610390565b6040516100d091906110e9565b60405180910390f35b6100f360048036038101906100ee9190611104565b6103c1565b60405161010091906111ef565b60405180910390f35b610123600480360381019061011e919061100f565b610458565b604051610130919061137c565b60405180910390f35b61014161081d565b60405161014e91906110e9565b60405180910390f35b610171600480360381019061016c91906114d3565b610823565b005b61018d6004803603810190610188919061100f565b61099a565b6040516101a19897969594939291906115b7565b60405180910390f35b6101c460048036038101906101bf9190611658565b610caa565b005b803373ffffffffffffffffffffffffffffffffffffffff166001600083815260200190815260200160002060000160009054906101000a900473ffffffffffffffffffffffffffffffffffffffff1673ffffffffffffffffffffffffffffffffffffffff161461023557600080fd5b8160008111801561024857506000548111155b610287576040517f08c379a000000000000000000000000000000000000000000000000000000000815260040161027e906117ab565b60405180910390fd5b6004543a61029591906117fa565b3373ffffffffffffffffffffffffffffffffffffffff163110156102ee576040517f08c379a00000000000000000000000000000000000000000000000000000000081526004016102e5906118ae565b60405180910390fd5b60016000848152602001908152602001600020600080820160006101000a81549073ffffffffffffffffffffffffffffffffffffffff02191690556001820160006103399190610f0d565b6002820160006103499190610f0d565b6003820160006103599190610f0d565b6004820160006103699190610f0d565b6005820160006103799190610f0d565b600682016000905560078201600090555050505050565b600260205281600052604060002081815481106103ac57600080fd5b90600052602060002001600091509150505481565b6060600260008373ffffffffffffffffffffffffffffffffffffffff1673ffffffffffffffffffffffffffffffffffffffff16815260200190815260200160002080548060200260200160405190810160405280929190818152602001828054801561044c57602002820191906000526020600020905b815481526020019060010190808311610438575b50505050509050919050565b610460610f4d565b8160008111801561047357506000548111155b6104b2576040517f08c379a00000000000000000000000000000000000000000000000000000000081526004016104a9906117ab565b60405180910390fd5b60016000848152602001908152602001600020604051806101000160405290816000820160009054906101000a900473ffffffffffffffffffffffffffffffffffffffff1673ffffffffffffffffffffffffffffffffffffffff1673ffffffffffffffffffffffffffffffffffffffff168152602001600182018054610537906118fd565b80601f0160208091040260200160405190810160405280929190818152602001828054610563906118fd565b80156105b05780601f10610585576101008083540402835291602001916105b0565b820191906000526020600020905b81548152906001019060200180831161059357829003601f168201915b505050505081526020016002820180546105c9906118fd565b80601f01602080910402602001604051908101604052809291908181526020018280546105f5906118fd565b80156106425780601f1061061757610100808354040283529160200191610642565b820191906000526020600020905b81548152906001019060200180831161062557829003601f168201915b5050505050815260200160038201805461065b906118fd565b80601f0160208091040260200160405190810160405280929190818152602001828054610687906118fd565b80156106d45780601f106106a9576101008083540402835291602001916106d4565b820191906000526020600020905b8154815290600101906020018083116106b757829003601f168201915b505050505081526020016004820180546106ed906118fd565b80601f0160208091040260200160405190810160405280929190818152602001828054610719906118fd565b80156107665780601f1061073b57610100808354040283529160200191610766565b820191906000526020600020905b81548152906001019060200180831161074957829003601f168201915b5050505050815260200160058201805461077f906118fd565b80601f01602080910402602001604051908101604052809291908181526020018280546107ab906118fd565b80156107f85780601f106107cd576101008083540402835291602001916107f8565b820191906000526020600020905b8154815290600101906020018083116107db57829003601f168201915b5050505050815260200160068201548152602001600782015481525050915050919050565b60005481565b823373ffffffffffffffffffffffffffffffffffffffff166001600083815260200190815260200160002060000160009054906101000a900473ffffffffffffffffffffffffffffffffffffffff1673ffffffffffffffffffffffffffffffffffffffff161461089257600080fd5b836000811180156108a557506000548111155b6108e4576040517f08c379a00000000000000000000000000000000000000000000000000000000081526004016108db906117ab565b60405180910390fd5b6004543a6108f291906117fa565b3373ffffffffffffffffffffffffffffffffffffffff1631101561094b576040517f08c379a0000000000000000000000000000000000000000000000000000000008152600401610942906118ae565b60405180910390fd5b8360016000878152602001908152602001600020600301908161096e9190611ada565b50826001600087815260200190815260200160002060040190816109929190611ada565b505050505050565b60016020528060005260406000206000915090508060000160009054906101000a900473ffffffffffffffffffffffffffffffffffffffff16908060010180546109e3906118fd565b80601f0160208091040260200160405190810160405280929190818152602001828054610a0f906118fd565b8015610a5c5780601f10610a3157610100808354040283529160200191610a5c565b820191906000526020600020905b815481529060010190602001808311610a3f57829003601f168201915b505050505090806002018054610a71906118fd565b80601f0160208091040260200160405190810160405280929190818152602001828054610a9d906118fd565b8015610aea5780601f10610abf57610100808354040283529160200191610aea565b820191906000526020600020905b815481529060010190602001808311610acd57829003601f168201915b505050505090806003018054610aff906118fd565b80601f0160208091040260200160405190810160405280929190818152602001828054610b2b906118fd565b8015610b785780601f10610b4d57610100808354040283529160200191610b78565b820191906000526020600020905b815481529060010190602001808311610b5b57829003601f168201915b505050505090806004018054610b8d906118fd565b80601f0160208091040260200160405190810160405280929190818152602001828054610bb9906118fd565b8015610c065780601f10610bdb57610100808354040283529160200191610c06565b820191906000526020600020905b815481529060010190602001808311610be957829003601f168201915b505050505090806005018054610c1b906118fd565b80601f0160208091040260200160405190810160405280929190818152602001828054610c47906118fd565b8015610c945780601f10610c6957610100808354040283529160200191610c94565b820191906000526020600020905b815481529060010190602001808311610c7757829003601f168201915b5050505050908060060154908060070154905088565b6004543a610cb891906117fa565b3373ffffffffffffffffffffffffffffffffffffffff16311015610d11576040517f08c379a0000000000000000000000000000000000000000000000000000000008152600401610d08906118ae565b60405180910390fd5b6000835111610d55576040517f08c379a0000000000000000000000000000000000000000000000000000000008152600401610d4c90611bf8565b60405180910390fd5b600080815480929190610d6790611c18565b91905055506040518061010001604052803373ffffffffffffffffffffffffffffffffffffffff168152602001868152602001858152602001848152602001838152602001828152602001428152602001600054815250600160008054815260200190815260200160002060008201518160000160006101000a81548173ffffffffffffffffffffffffffffffffffffffff021916908373ffffffffffffffffffffffffffffffffffffffff1602179055506020820151816001019081610e2e9190611ada565b506040820151816002019081610e449190611ada565b506060820151816003019081610e5a9190611ada565b506080820151816004019081610e709190611ada565b5060a0820151816005019081610e869190611ada565b5060c0820151816006015560e08201518160070155905050600260003373ffffffffffffffffffffffffffffffffffffffff1673ffffffffffffffffffffffffffffffffffffffff16815260200190815260200160002060005490806001815401808255809150506001900390600052602060002001600090919091909150555050505050565b508054610f19906118fd565b6000825580601f10610f2b5750610f4a565b601f016020900490600052602060002090810190610f499190610fa8565b5b50565b604051806101000160405280600073ffffffffffffffffffffffffffffffffffffffff168152602001606081526020016060815260200160608152602001606081526020016060815260200160008152602001600081525090565b5b80821115610fc1576000816000905550600101610fa9565b5090565b6000604051905090565b600080fd5b600080fd5b6000819050919050565b610fec81610fd9565b8114610ff757600080fd5b50565b60008135905061100981610fe3565b92915050565b60006020828403121561102557611024610fcf565b5b600061103384828501610ffa565b91505092915050565b600073ffffffffffffffffffffffffffffffffffffffff82169050919050565b60006110678261103c565b9050919050565b6110778161105c565b811461108257600080fd5b50565b6000813590506110948161106e565b92915050565b600080604083850312156110b1576110b0610fcf565b5b60006110bf85828601611085565b92505060206110d085828601610ffa565b9150509250929050565b6110e381610fd9565b82525050565b60006020820190506110fe60008301846110da565b92915050565b60006020828403121561111a57611119610fcf565b5b600061112884828501611085565b91505092915050565b600081519050919050565b600082825260208201905092915050565b6000819050602082019050919050565b61116681610fd9565b82525050565b6000611178838361115d565b60208301905092915050565b6000602082019050919050565b600061119c82611131565b6111a6818561113c565b93506111b18361114d565b8060005b838110156111e25781516111c9888261116c565b97506111d483611184565b9250506001810190506111b5565b5085935050505092915050565b600060208201905081810360008301526112098184611191565b905092915050565b61121a8161105c565b82525050565b600081519050919050565b600082825260208201905092915050565b60005b8381101561125a57808201518184015260208101905061123f565b60008484015250505050565b6000601f19601f8301169050919050565b600061128282611220565b61128c818561122b565b935061129c81856020860161123c565b6112a581611266565b840191505092915050565b6000610100830160008301516112c96000860182611211565b50602083015184820360208601526112e18282611277565b915050604083015184820360408601526112fb8282611277565b915050606083015184820360608601526113158282611277565b9150506080830151848203608086015261132f8282611277565b91505060a083015184820360a08601526113498282611277565b91505060c083015161135e60c086018261115d565b5060e083015161137160e086018261115d565b508091505092915050565b6000602082019050818103600083015261139681846112b0565b905092915050565b600080fd5b600080fd5b7f4e487b7100000000000000000000000000000000000000000000000000000000600052604160045260246000fd5b6113e082611266565b810181811067ffffffffffffffff821117156113ff576113fe6113a8565b5b80604052505050565b6000611412610fc5565b905061141e82826113d7565b919050565b600067ffffffffffffffff82111561143e5761143d6113a8565b5b61144782611266565b9050602081019050919050565b82818337600083830152505050565b600061147661147184611423565b611408565b905082815260208101848484011115611492576114916113a3565b5b61149d848285611454565b509392505050565b600082601f8301126114ba576114b961139e565b5b81356114ca848260208601611463565b91505092915050565b6000806000606084860312156114ec576114eb610fcf565b5b60006114fa86828701610ffa565b935050602084013567ffffffffffffffff81111561151b5761151a610fd4565b5b611527868287016114a5565b925050604084013567ffffffffffffffff81111561154857611547610fd4565b5b611554868287016114a5565b9150509250925092565b6115678161105c565b82525050565b600082825260208201905092915050565b600061158982611220565b611593818561156d565b93506115a381856020860161123c565b6115ac81611266565b840191505092915050565b6000610100820190506115cd600083018b61155e565b81810360208301526115df818a61157e565b905081810360408301526115f3818961157e565b90508181036060830152611607818861157e565b9050818103608083015261161b818761157e565b905081810360a083015261162f818661157e565b905061163e60c08301856110da565b61164b60e08301846110da565b9998505050505050505050565b600080600080600060a0868803121561167457611673610fcf565b5b600086013567ffffffffffffffff81111561169257611691610fd4565b5b61169e888289016114a5565b955050602086013567ffffffffffffffff8111156116bf576116be610fd4565b5b6116cb888289016114a5565b945050604086013567ffffffffffffffff8111156116ec576116eb610fd4565b5b6116f8888289016114a5565b935050606086013567ffffffffffffffff81111561171957611718610fd4565b5b611725888289016114a5565b925050608086013567ffffffffffffffff81111561174657611745610fd4565b5b611752888289016114a5565b9150509295509295909350565b7f506f737420646f6573206e6f742065786973742e000000000000000000000000600082015250565b600061179560148361156d565b91506117a08261175f565b602082019050919050565b600060208201905081810360008301526117c481611788565b9050919050565b7f4e487b7100000000000000000000000000000000000000000000000000000000600052601160045260246000fd5b600061180582610fd9565b915061181083610fd9565b925082820261181e81610fd9565b91508282048414831517611835576118346117cb565b5b5092915050565b7f4e6f7420656e6f75676820657468657220746f20706572666f726d207468697360008201527f206f7065726174696f6e00000000000000000000000000000000000000000000602082015250565b6000611898602a8361156d565b91506118a38261183c565b604082019050919050565b600060208201905081810360008301526118c78161188b565b9050919050565b7f4e487b7100000000000000000000000000000000000000000000000000000000600052602260045260246000fd5b6000600282049050600182168061191557607f821691505b602082108103611928576119276118ce565b5b50919050565b60008190508160005260206000209050919050565b60006020601f8301049050919050565b600082821b905092915050565b6000600883026119907fffffffffffffffffffffffffffffffffffffffffffffffffffffffffffffffff82611953565b61199a8683611953565b95508019841693508086168417925050509392505050565b6000819050919050565b60006119d76119d26119cd84610fd9565b6119b2565b610fd9565b9050919050565b6000819050919050565b6119f1836119bc565b611a056119fd826119de565b848454611960565b825550505050565b600090565b611a1a611a0d565b611a258184846119e8565b505050565b5b81811015611a4957611a3e600082611a12565b600181019050611a2b565b5050565b601f821115611a8e57611a5f8161192e565b611a6884611943565b81016020851015611a77578190505b611a8b611a8385611943565b830182611a2a565b50505b505050565b600082821c905092915050565b6000611ab160001984600802611a93565b1980831691505092915050565b6000611aca8383611aa0565b9150826002028217905092915050565b611ae382611220565b67ffffffffffffffff811115611afc57611afb6113a8565b5b611b0682546118fd565b611b11828285611a4d565b600060209050601f831160018114611b445760008415611b32578287015190505b611b3c8582611abe565b865550611ba4565b601f198416611b528661192e565b60005b82811015611b7a57848901518255600182019150602085019450602081019050611b55565b86831015611b975784890151611b93601f891682611aa0565b8355505b6001600288020188555050505b505050505050565b7f5469746c65206d757374206e6f7420626520656d7074792e0000000000000000600082015250565b6000611be260188361156d565b9150611bed82611bac565b602082019050919050565b60006020820190508181036000830152611c1181611bd5565b9050919050565b6000611c2382610fd9565b91507fffffffffffffffffffffffffffffffffffffffffffffffffffffffffffffffff8203611c5557611c546117cb565b5b60018201905091905056fea2646970667358221220eb6a08f334332fa6207114aa01e774d3993dda338788d2ada8751b367fd6880f64736f6c63430008120033",
  "linkReferences": {},
  "deployedLinkReferences": {}
}