{
  "_format": "hh-sol-artifact-1",
  "contractName": "Post",
  "sourceName": "contracts/Post.sol",
  "abi": [
    {
      "inputs": [],
      "stateMutability": "payable",
      "type": "constructor"
    },
    {
      "stateMutability": "payable",
      "type": "fallback"
    },
    {
      "inputs": [
        {
          "internalType": "uint256",
          "name": "",
          "type": "uint256"
        }
      ],
      "name": "articles",
      "outputs": [
        {
          "internalType": "address",
          "name": "authorAddress",
          "type": "address"
        },
        {
          "internalType": "string",
          "name": "authorAlias",
          "type": "string"
        },
        {
          "internalType": "string",
          "name": "category",
          "type": "string"
        },
        {
          "internalType": "string",
          "name": "title",
          "type": "string"
        },
        {
          "internalType": "string",
          "name": "contentHash",
          "type": "string"
        },
        {
          "internalType": "string",
          "name": "imageHash",
          "type": "string"
        },
        {
          "internalType": "uint256",
          "name": "timestamp",
          "type": "uint256"
        },
        {
          "internalType": "uint256",
          "name": "articleId",
          "type": "uint256"
        }
      ],
      "stateMutability": "view",
      "type": "function"
    },
    {
      "inputs": [
        {
          "internalType": "address",
          "name": "",
          "type": "address"
        },
        {
          "internalType": "uint256",
          "name": "",
          "type": "uint256"
        }
      ],
      "name": "authorArticles",
      "outputs": [
        {
          "internalType": "uint256",
          "name": "",
          "type": "uint256"
        }
      ],
      "stateMutability": "view",
      "type": "function"
    },
    {
      "inputs": [
        {
          "internalType": "string",
          "name": "_authorAlias",
          "type": "string"
        },
        {
          "internalType": "string",
          "name": "_category",
          "type": "string"
        },
        {
          "internalType": "string",
          "name": "_title",
          "type": "string"
        },
        {
          "internalType": "string",
          "name": "_contentHash",
          "type": "string"
        },
        {
          "internalType": "string",
          "name": "_imageHash",
          "type": "string"
        }
      ],
      "name": "createPost",
      "outputs": [],
      "stateMutability": "nonpayable",
      "type": "function"
    },
    {
      "inputs": [
        {
          "internalType": "uint256",
          "name": "_postId",
          "type": "uint256"
        }
      ],
      "name": "deletePost",
      "outputs": [],
      "stateMutability": "nonpayable",
      "type": "function"
    },
    {
      "inputs": [
        {
          "internalType": "string",
          "name": "_name",
          "type": "string"
        },
        {
          "internalType": "string",
          "name": "_message",
          "type": "string"
        },
        {
          "internalType": "uint256",
          "name": "_amount",
          "type": "uint256"
        }
      ],
      "name": "donate",
      "outputs": [],
      "stateMutability": "payable",
      "type": "function"
    },
    {
      "inputs": [
        {
          "internalType": "address",
          "name": "_authorAddress",
          "type": "address"
        }
      ],
      "name": "getAuthorArticleIds",
      "outputs": [
        {
          "internalType": "uint256[]",
          "name": "",
          "type": "uint256[]"
        }
      ],
      "stateMutability": "view",
      "type": "function"
    },
    {
      "inputs": [],
      "name": "getDonations",
      "outputs": [
        {
          "components": [
            {
              "internalType": "string",
              "name": "name",
              "type": "string"
            },
            {
              "internalType": "string",
              "name": "message",
              "type": "string"
            },
            {
              "internalType": "uint256",
              "name": "amount",
              "type": "uint256"
            }
          ],
          "internalType": "struct Post.Donation[]",
          "name": "",
          "type": "tuple[]"
        }
      ],
      "stateMutability": "view",
      "type": "function"
    },
    {
      "inputs": [
        {
          "internalType": "uint256",
          "name": "_postId",
          "type": "uint256"
        }
      ],
      "name": "getPost",
      "outputs": [
        {
          "components": [
            {
              "internalType": "address",
              "name": "authorAddress",
              "type": "address"
            },
            {
              "internalType": "string",
              "name": "authorAlias",
              "type": "string"
            },
            {
              "internalType": "string",
              "name": "category",
              "type": "string"
            },
            {
              "internalType": "string",
              "name": "title",
              "type": "string"
            },
            {
              "internalType": "string",
              "name": "contentHash",
              "type": "string"
            },
            {
              "internalType": "string",
              "name": "imageHash",
              "type": "string"
            },
            {
              "internalType": "uint256",
              "name": "timestamp",
              "type": "uint256"
            },
            {
              "internalType": "uint256",
              "name": "articleId",
              "type": "uint256"
            }
          ],
          "internalType": "struct Post.Article",
          "name": "",
          "type": "tuple"
        }
      ],
      "stateMutability": "view",
      "type": "function"
    },
    {
      "inputs": [],
      "name": "postId",
      "outputs": [
        {
          "internalType": "uint256",
          "name": "",
          "type": "uint256"
        }
      ],
      "stateMutability": "view",
      "type": "function"
    },
    {
      "inputs": [
        {
          "internalType": "uint256",
          "name": "_postId",
          "type": "uint256"
        },
        {
          "internalType": "string",
          "name": "_title",
          "type": "string"
        },
        {
          "internalType": "string",
          "name": "_contentHash",
          "type": "string"
        }
      ],
      "name": "updatePost",
      "outputs": [],
      "stateMutability": "nonpayable",
      "type": "function"
    },
    {
      "stateMutability": "payable",
      "type": "receive"
    }
  ],
  "bytecode": "0x60806040526000805562030d4060048190555033600360006101000a81548173ffffffffffffffffffffffffffffffffffffffff021916908373ffffffffffffffffffffffffffffffffffffffff1602179055506123d2806100626000396000f3fe6080604052600436106100955760003560e01c806360a0ecda1161005957806360a0ecda1461019a57806366d1cac9146101c5578063e25f8416146101ee578063edcfafe614610219578063fc446bb41461025d5761009c565b8063094cd5ee1461009e578063101a3cc4146100c75780632fdec78814610104578063387da4f21461014157806340731c241461015d5761009c565b3661009c57005b005b3480156100aa57600080fd5b506100c560048036038101906100c091906114f3565b610286565b005b3480156100d357600080fd5b506100ee60048036038101906100e9919061157e565b6105b5565b6040516100fb91906115cd565b60405180910390f35b34801561011057600080fd5b5061012b600480360381019061012691906115e8565b6105e6565b60405161013891906116d3565b60405180910390f35b61015b6004803603810190610156919061183b565b61067d565b005b34801561016957600080fd5b50610184600480360381019061017f91906114f3565b610769565b6040516101919190611a20565b60405180910390f35b3480156101a657600080fd5b506101af610b51565b6040516101bc91906115cd565b60405180910390f35b3480156101d157600080fd5b506101ec60048036038101906101e79190611a42565b610b57565b005b3480156101fa57600080fd5b50610203610cf1565b6040516102109190611be6565b60405180910390f35b34801561022557600080fd5b50610240600480360381019061023b91906114f3565b610e7e565b604051610254989796959493929190611c61565b60405180910390f35b34801561026957600080fd5b50610284600480360381019061027f9190611d02565b61118e565b005b803373ffffffffffffffffffffffffffffffffffffffff166001600083815260200190815260200160002060000160009054906101000a900473ffffffffffffffffffffffffffffffffffffffff1673ffffffffffffffffffffffffffffffffffffffff16146102f557600080fd5b81600060016000838152602001908152602001600020600601541415801561031d5750600081115b801561032b57506000548111155b61036a576040517f08c379a000000000000000000000000000000000000000000000000000000000815260040161036190611e55565b60405180910390fd5b6004543a6103789190611ea4565b3373ffffffffffffffffffffffffffffffffffffffff163110156103d1576040517f08c379a00000000000000000000000000000000000000000000000000000000081526004016103c890611f58565b60405180910390fd5b60006001600085815260200190815260200160002060000160009054906101000a900473ffffffffffffffffffffffffffffffffffffffff16905060016000858152602001908152602001600020600080820160006101000a81549073ffffffffffffffffffffffffffffffffffffffff021916905560018201600061045791906113f1565b60028201600061046791906113f1565b60038201600061047791906113f1565b60048201600061048791906113f1565b60058201600061049791906113f1565b6006820160009055600782016000905550506000600260008373ffffffffffffffffffffffffffffffffffffffff1673ffffffffffffffffffffffffffffffffffffffff168152602001908152602001600020905060005b81805490508110156105ad578582828154811061050f5761050e611f78565b5b90600052602060002001540361059a5781600183805490506105319190611fa7565b8154811061054257610541611f78565b5b90600052602060002001548282815481106105605761055f611f78565b5b90600052602060002001819055508180548061057f5761057e611fdb565b5b600190038181906000526020600020016000905590556105ad565b80806105a59061200a565b9150506104ef565b505050505050565b600260205281600052604060002081815481106105d157600080fd5b90600052602060002001600091509150505481565b6060600260008373ffffffffffffffffffffffffffffffffffffffff1673ffffffffffffffffffffffffffffffffffffffff16815260200190815260200160002080548060200260200160405190810160405280929190818152602001828054801561067157602002820191906000526020600020905b81548152602001906001019080831161065d575b50505050509050919050565b6005604051806060016040528085815260200184815260200183815250908060018154018082558091505060019003906000526020600020906003020160009091909190915060008201518160000190816106d8919061225e565b5060208201518160010190816106ee919061225e565b50604082015181600201555050600360009054906101000a900473ffffffffffffffffffffffffffffffffffffffff1673ffffffffffffffffffffffffffffffffffffffff166108fc349081150290604051600060405180830381858888f19350505050158015610763573d6000803e3d6000fd5b50505050565b610771611431565b8160006001600083815260200190815260200160002060060154141580156107995750600081115b80156107a757506000548111155b6107e6576040517f08c379a00000000000000000000000000000000000000000000000000000000081526004016107dd90611e55565b60405180910390fd5b60016000848152602001908152602001600020604051806101000160405290816000820160009054906101000a900473ffffffffffffffffffffffffffffffffffffffff1673ffffffffffffffffffffffffffffffffffffffff1673ffffffffffffffffffffffffffffffffffffffff16815260200160018201805461086b90612081565b80601f016020809104026020016040519081016040528092919081815260200182805461089790612081565b80156108e45780601f106108b9576101008083540402835291602001916108e4565b820191906000526020600020905b8154815290600101906020018083116108c757829003601f168201915b505050505081526020016002820180546108fd90612081565b80601f016020809104026020016040519081016040528092919081815260200182805461092990612081565b80156109765780601f1061094b57610100808354040283529160200191610976565b820191906000526020600020905b81548152906001019060200180831161095957829003601f168201915b5050505050815260200160038201805461098f90612081565b80601f01602080910402602001604051908101604052809291908181526020018280546109bb90612081565b8015610a085780601f106109dd57610100808354040283529160200191610a08565b820191906000526020600020905b8154815290600101906020018083116109eb57829003601f168201915b50505050508152602001600482018054610a2190612081565b80601f0160208091040260200160405190810160405280929190818152602001828054610a4d90612081565b8015610a9a5780601f10610a6f57610100808354040283529160200191610a9a565b820191906000526020600020905b815481529060010190602001808311610a7d57829003601f168201915b50505050508152602001600582018054610ab390612081565b80601f0160208091040260200160405190810160405280929190818152602001828054610adf90612081565b8015610b2c5780601f10610b0157610100808354040283529160200191610b2c565b820191906000526020600020905b815481529060010190602001808311610b0f57829003601f168201915b5050505050815260200160068201548152602001600782015481525050915050919050565b60005481565b823373ffffffffffffffffffffffffffffffffffffffff166001600083815260200190815260200160002060000160009054906101000a900473ffffffffffffffffffffffffffffffffffffffff1673ffffffffffffffffffffffffffffffffffffffff1614610bc657600080fd5b836000600160008381526020019081526020016000206006015414158015610bee5750600081115b8015610bfc57506000548111155b610c3b576040517f08c379a0000000000000000000000000000000000000000000000000000000008152600401610c3290611e55565b60405180910390fd5b6004543a610c499190611ea4565b3373ffffffffffffffffffffffffffffffffffffffff16311015610ca2576040517f08c379a0000000000000000000000000000000000000000000000000000000008152600401610c9990611f58565b60405180910390fd5b83600160008781526020019081526020016000206003019081610cc5919061225e565b5082600160008781526020019081526020016000206004019081610ce9919061225e565b505050505050565b60606005805480602002602001604051908101604052809291908181526020016000905b82821015610e755783829060005260206000209060030201604051806060016040529081600082018054610d4890612081565b80601f0160208091040260200160405190810160405280929190818152602001828054610d7490612081565b8015610dc15780601f10610d9657610100808354040283529160200191610dc1565b820191906000526020600020905b815481529060010190602001808311610da457829003601f168201915b50505050508152602001600182018054610dda90612081565b80601f0160208091040260200160405190810160405280929190818152602001828054610e0690612081565b8015610e535780601f10610e2857610100808354040283529160200191610e53565b820191906000526020600020905b815481529060010190602001808311610e3657829003601f168201915b5050505050815260200160028201548152505081526020019060010190610d15565b50505050905090565b60016020528060005260406000206000915090508060000160009054906101000a900473ffffffffffffffffffffffffffffffffffffffff1690806001018054610ec790612081565b80601f0160208091040260200160405190810160405280929190818152602001828054610ef390612081565b8015610f405780601f10610f1557610100808354040283529160200191610f40565b820191906000526020600020905b815481529060010190602001808311610f2357829003601f168201915b505050505090806002018054610f5590612081565b80601f0160208091040260200160405190810160405280929190818152602001828054610f8190612081565b8015610fce5780601f10610fa357610100808354040283529160200191610fce565b820191906000526020600020905b815481529060010190602001808311610fb157829003601f168201915b505050505090806003018054610fe390612081565b80601f016020809104026020016040519081016040528092919081815260200182805461100f90612081565b801561105c5780601f106110315761010080835404028352916020019161105c565b820191906000526020600020905b81548152906001019060200180831161103f57829003601f168201915b50505050509080600401805461107190612081565b80601f016020809104026020016040519081016040528092919081815260200182805461109d90612081565b80156110ea5780601f106110bf576101008083540402835291602001916110ea565b820191906000526020600020905b8154815290600101906020018083116110cd57829003601f168201915b5050505050908060050180546110ff90612081565b80601f016020809104026020016040519081016040528092919081815260200182805461112b90612081565b80156111785780601f1061114d57610100808354040283529160200191611178565b820191906000526020600020905b81548152906001019060200180831161115b57829003601f168201915b5050505050908060060154908060070154905088565b6004543a61119c9190611ea4565b3373ffffffffffffffffffffffffffffffffffffffff163110156111f5576040517f08c379a00000000000000000000000000000000000000000000000000000000081526004016111ec90611f58565b60405180910390fd5b6000835111611239576040517f08c379a00000000000000000000000000000000000000000000000000000000081526004016112309061237c565b60405180910390fd5b60008081548092919061124b9061200a565b91905055506040518061010001604052803373ffffffffffffffffffffffffffffffffffffffff168152602001868152602001858152602001848152602001838152602001828152602001428152602001600054815250600160008054815260200190815260200160002060008201518160000160006101000a81548173ffffffffffffffffffffffffffffffffffffffff021916908373ffffffffffffffffffffffffffffffffffffffff1602179055506020820151816001019081611312919061225e565b506040820151816002019081611328919061225e565b50606082015181600301908161133e919061225e565b506080820151816004019081611354919061225e565b5060a082015181600501908161136a919061225e565b5060c0820151816006015560e08201518160070155905050600260003373ffffffffffffffffffffffffffffffffffffffff1673ffffffffffffffffffffffffffffffffffffffff16815260200190815260200160002060005490806001815401808255809150506001900390600052602060002001600090919091909150555050505050565b5080546113fd90612081565b6000825580601f1061140f575061142e565b601f01602090049060005260206000209081019061142d919061148c565b5b50565b604051806101000160405280600073ffffffffffffffffffffffffffffffffffffffff168152602001606081526020016060815260200160608152602001606081526020016060815260200160008152602001600081525090565b5b808211156114a557600081600090555060010161148d565b5090565b6000604051905090565b600080fd5b600080fd5b6000819050919050565b6114d0816114bd565b81146114db57600080fd5b50565b6000813590506114ed816114c7565b92915050565b600060208284031215611509576115086114b3565b5b6000611517848285016114de565b91505092915050565b600073ffffffffffffffffffffffffffffffffffffffff82169050919050565b600061154b82611520565b9050919050565b61155b81611540565b811461156657600080fd5b50565b60008135905061157881611552565b92915050565b60008060408385031215611595576115946114b3565b5b60006115a385828601611569565b92505060206115b4858286016114de565b9150509250929050565b6115c7816114bd565b82525050565b60006020820190506115e260008301846115be565b92915050565b6000602082840312156115fe576115fd6114b3565b5b600061160c84828501611569565b91505092915050565b600081519050919050565b600082825260208201905092915050565b6000819050602082019050919050565b61164a816114bd565b82525050565b600061165c8383611641565b60208301905092915050565b6000602082019050919050565b600061168082611615565b61168a8185611620565b935061169583611631565b8060005b838110156116c65781516116ad8882611650565b97506116b883611668565b925050600181019050611699565b5085935050505092915050565b600060208201905081810360008301526116ed8184611675565b905092915050565b600080fd5b600080fd5b6000601f19601f8301169050919050565b7f4e487b7100000000000000000000000000000000000000000000000000000000600052604160045260246000fd5b611748826116ff565b810181811067ffffffffffffffff8211171561176757611766611710565b5b80604052505050565b600061177a6114a9565b9050611786828261173f565b919050565b600067ffffffffffffffff8211156117a6576117a5611710565b5b6117af826116ff565b9050602081019050919050565b82818337600083830152505050565b60006117de6117d98461178b565b611770565b9050828152602081018484840111156117fa576117f96116fa565b5b6118058482856117bc565b509392505050565b600082601f830112611822576118216116f5565b5b81356118328482602086016117cb565b91505092915050565b600080600060608486031215611854576118536114b3565b5b600084013567ffffffffffffffff811115611872576118716114b8565b5b61187e8682870161180d565b935050602084013567ffffffffffffffff81111561189f5761189e6114b8565b5b6118ab8682870161180d565b92505060406118bc868287016114de565b9150509250925092565b6118cf81611540565b82525050565b600081519050919050565b600082825260208201905092915050565b60005b8381101561190f5780820151818401526020810190506118f4565b60008484015250505050565b6000611926826118d5565b61193081856118e0565b93506119408185602086016118f1565b611949816116ff565b840191505092915050565b60006101008301600083015161196d60008601826118c6565b5060208301518482036020860152611985828261191b565b9150506040830151848203604086015261199f828261191b565b915050606083015184820360608601526119b9828261191b565b915050608083015184820360808601526119d3828261191b565b91505060a083015184820360a08601526119ed828261191b565b91505060c0830151611a0260c0860182611641565b5060e0830151611a1560e0860182611641565b508091505092915050565b60006020820190508181036000830152611a3a8184611954565b905092915050565b600080600060608486031215611a5b57611a5a6114b3565b5b6000611a69868287016114de565b935050602084013567ffffffffffffffff811115611a8a57611a896114b8565b5b611a968682870161180d565b925050604084013567ffffffffffffffff811115611ab757611ab66114b8565b5b611ac38682870161180d565b9150509250925092565b600081519050919050565b600082825260208201905092915050565b6000819050602082019050919050565b60006060830160008301518482036000860152611b16828261191b565b91505060208301518482036020860152611b30828261191b565b9150506040830151611b456040860182611641565b508091505092915050565b6000611b5c8383611af9565b905092915050565b6000602082019050919050565b6000611b7c82611acd565b611b868185611ad8565b935083602082028501611b9885611ae9565b8060005b85811015611bd45784840389528151611bb58582611b50565b9450611bc083611b64565b925060208a01995050600181019050611b9c565b50829750879550505050505092915050565b60006020820190508181036000830152611c008184611b71565b905092915050565b611c1181611540565b82525050565b600082825260208201905092915050565b6000611c33826118d5565b611c3d8185611c17565b9350611c4d8185602086016118f1565b611c56816116ff565b840191505092915050565b600061010082019050611c77600083018b611c08565b8181036020830152611c89818a611c28565b90508181036040830152611c9d8189611c28565b90508181036060830152611cb18188611c28565b90508181036080830152611cc58187611c28565b905081810360a0830152611cd98186611c28565b9050611ce860c08301856115be565b611cf560e08301846115be565b9998505050505050505050565b600080600080600060a08688031215611d1e57611d1d6114b3565b5b600086013567ffffffffffffffff811115611d3c57611d3b6114b8565b5b611d488882890161180d565b955050602086013567ffffffffffffffff811115611d6957611d686114b8565b5b611d758882890161180d565b945050604086013567ffffffffffffffff811115611d9657611d956114b8565b5b611da28882890161180d565b935050606086013567ffffffffffffffff811115611dc357611dc26114b8565b5b611dcf8882890161180d565b925050608086013567ffffffffffffffff811115611df057611def6114b8565b5b611dfc8882890161180d565b9150509295509295909350565b7f506f737420646f6573206e6f742065786973742e000000000000000000000000600082015250565b6000611e3f601483611c17565b9150611e4a82611e09565b602082019050919050565b60006020820190508181036000830152611e6e81611e32565b9050919050565b7f4e487b7100000000000000000000000000000000000000000000000000000000600052601160045260246000fd5b6000611eaf826114bd565b9150611eba836114bd565b9250828202611ec8816114bd565b91508282048414831517611edf57611ede611e75565b5b5092915050565b7f4e6f7420656e6f75676820657468657220746f20706572666f726d207468697360008201527f206f7065726174696f6e00000000000000000000000000000000000000000000602082015250565b6000611f42602a83611c17565b9150611f4d82611ee6565b604082019050919050565b60006020820190508181036000830152611f7181611f35565b9050919050565b7f4e487b7100000000000000000000000000000000000000000000000000000000600052603260045260246000fd5b6000611fb2826114bd565b9150611fbd836114bd565b9250828203905081811115611fd557611fd4611e75565b5b92915050565b7f4e487b7100000000000000000000000000000000000000000000000000000000600052603160045260246000fd5b6000612015826114bd565b91507fffffffffffffffffffffffffffffffffffffffffffffffffffffffffffffffff820361204757612046611e75565b5b600182019050919050565b7f4e487b7100000000000000000000000000000000000000000000000000000000600052602260045260246000fd5b6000600282049050600182168061209957607f821691505b6020821081036120ac576120ab612052565b5b50919050565b60008190508160005260206000209050919050565b60006020601f8301049050919050565b600082821b905092915050565b6000600883026121147fffffffffffffffffffffffffffffffffffffffffffffffffffffffffffffffff826120d7565b61211e86836120d7565b95508019841693508086168417925050509392505050565b6000819050919050565b600061215b612156612151846114bd565b612136565b6114bd565b9050919050565b6000819050919050565b61217583612140565b61218961218182612162565b8484546120e4565b825550505050565b600090565b61219e612191565b6121a981848461216c565b505050565b5b818110156121cd576121c2600082612196565b6001810190506121af565b5050565b601f821115612212576121e3816120b2565b6121ec846120c7565b810160208510156121fb578190505b61220f612207856120c7565b8301826121ae565b50505b505050565b600082821c905092915050565b600061223560001984600802612217565b1980831691505092915050565b600061224e8383612224565b9150826002028217905092915050565b612267826118d5565b67ffffffffffffffff8111156122805761227f611710565b5b61228a8254612081565b6122958282856121d1565b600060209050601f8311600181146122c857600084156122b6578287015190505b6122c08582612242565b865550612328565b601f1984166122d6866120b2565b60005b828110156122fe578489015182556001820191506020850194506020810190506122d9565b8683101561231b5784890151612317601f891682612224565b8355505b6001600288020188555050505b505050505050565b7f5469746c65206d757374206e6f7420626520656d7074792e0000000000000000600082015250565b6000612366601883611c17565b915061237182612330565b602082019050919050565b6000602082019050818103600083015261239581612359565b905091905056fea264697066735822122086ca6868b1fec82fed688a4cbe5b0a3e7b90af8f846cf3cdcd77cb550801db9a64736f6c63430008120033",
  "linkReferences": {},
  "deployedLinkReferences": {}
}