{
  "_format": "hh-sol-artifact-1",
  "contractName": "Post",
  "sourceName": "contracts/Post.sol",
  "abi": [
    {
      "inputs": [],
      "stateMutability": "payable",
      "type": "constructor"
    },
    {
      "stateMutability": "payable",
      "type": "fallback"
    },
    {
      "inputs": [
        {
          "internalType": "uint256",
          "name": "",
          "type": "uint256"
        }
      ],
      "name": "articles",
      "outputs": [
        {
          "internalType": "address",
          "name": "authorAddress",
          "type": "address"
        },
        {
          "internalType": "string",
          "name": "authorAlias",
          "type": "string"
        },
        {
          "internalType": "string",
          "name": "category",
          "type": "string"
        },
        {
          "internalType": "string",
          "name": "title",
          "type": "string"
        },
        {
          "internalType": "string",
          "name": "contentHash",
          "type": "string"
        },
        {
          "internalType": "string",
          "name": "imageHash",
          "type": "string"
        },
        {
          "internalType": "uint256",
          "name": "timestamp",
          "type": "uint256"
        },
        {
          "internalType": "uint256",
          "name": "articleId",
          "type": "uint256"
        }
      ],
      "stateMutability": "view",
      "type": "function"
    },
    {
      "inputs": [
        {
          "internalType": "address",
          "name": "",
          "type": "address"
        },
        {
          "internalType": "uint256",
          "name": "",
          "type": "uint256"
        }
      ],
      "name": "authorArticles",
      "outputs": [
        {
          "internalType": "uint256",
          "name": "",
          "type": "uint256"
        }
      ],
      "stateMutability": "view",
      "type": "function"
    },
    {
      "inputs": [
        {
          "internalType": "string",
          "name": "_authorAlias",
          "type": "string"
        },
        {
          "internalType": "string",
          "name": "_category",
          "type": "string"
        },
        {
          "internalType": "string",
          "name": "_title",
          "type": "string"
        },
        {
          "internalType": "string",
          "name": "_contentHash",
          "type": "string"
        },
        {
          "internalType": "string",
          "name": "_imageHash",
          "type": "string"
        }
      ],
      "name": "createPost",
      "outputs": [],
      "stateMutability": "nonpayable",
      "type": "function"
    },
    {
      "inputs": [
        {
          "internalType": "uint256",
          "name": "_postId",
          "type": "uint256"
        }
      ],
      "name": "deletePost",
      "outputs": [],
      "stateMutability": "nonpayable",
      "type": "function"
    },
    {
      "inputs": [
        {
          "internalType": "string",
          "name": "_name",
          "type": "string"
        },
        {
          "internalType": "string",
          "name": "_message",
          "type": "string"
        },
        {
          "internalType": "uint256",
          "name": "_amount",
          "type": "uint256"
        }
      ],
      "name": "donate",
      "outputs": [],
      "stateMutability": "payable",
      "type": "function"
    },
    {
      "inputs": [
        {
          "internalType": "address",
          "name": "_authorAddress",
          "type": "address"
        }
      ],
      "name": "getAuthorArticleIds",
      "outputs": [
        {
          "internalType": "uint256[]",
          "name": "",
          "type": "uint256[]"
        }
      ],
      "stateMutability": "view",
      "type": "function"
    },
    {
      "inputs": [],
      "name": "getDonations",
      "outputs": [
        {
          "components": [
            {
              "internalType": "string",
              "name": "name",
              "type": "string"
            },
            {
              "internalType": "string",
              "name": "message",
              "type": "string"
            },
            {
              "internalType": "uint256",
              "name": "amount",
              "type": "uint256"
            }
          ],
          "internalType": "struct Post.Donation[]",
          "name": "",
          "type": "tuple[]"
        }
      ],
      "stateMutability": "view",
      "type": "function"
    },
    {
      "inputs": [
        {
          "internalType": "uint256",
          "name": "_postId",
          "type": "uint256"
        }
      ],
      "name": "getPost",
      "outputs": [
        {
          "components": [
            {
              "internalType": "address",
              "name": "authorAddress",
              "type": "address"
            },
            {
              "internalType": "string",
              "name": "authorAlias",
              "type": "string"
            },
            {
              "internalType": "string",
              "name": "category",
              "type": "string"
            },
            {
              "internalType": "string",
              "name": "title",
              "type": "string"
            },
            {
              "internalType": "string",
              "name": "contentHash",
              "type": "string"
            },
            {
              "internalType": "string",
              "name": "imageHash",
              "type": "string"
            },
            {
              "internalType": "uint256",
              "name": "timestamp",
              "type": "uint256"
            },
            {
              "internalType": "uint256",
              "name": "articleId",
              "type": "uint256"
            }
          ],
          "internalType": "struct Post.Article",
          "name": "",
          "type": "tuple"
        }
      ],
      "stateMutability": "view",
      "type": "function"
    },
    {
      "inputs": [],
      "name": "postId",
      "outputs": [
        {
          "internalType": "uint256",
          "name": "",
          "type": "uint256"
        }
      ],
      "stateMutability": "view",
      "type": "function"
    },
    {
      "inputs": [
        {
          "internalType": "uint256",
          "name": "_postId",
          "type": "uint256"
        },
        {
          "internalType": "string",
          "name": "_title",
          "type": "string"
        },
        {
          "internalType": "string",
          "name": "_contentHash",
          "type": "string"
        }
      ],
      "name": "updatePost",
      "outputs": [],
      "stateMutability": "nonpayable",
      "type": "function"
    },
    {
      "stateMutability": "payable",
      "type": "receive"
    }
  ],
  "bytecode": "0x60806040526000805562030d4060048190555033600360006101000a81548173ffffffffffffffffffffffffffffffffffffffff021916908373ffffffffffffffffffffffffffffffffffffffff160217905550612195806100626000396000f3fe6080604052600436106100955760003560e01c806360a0ecda1161005957806360a0ecda1461019a57806366d1cac9146101c5578063e25f8416146101ee578063edcfafe614610219578063fc446bb41461025d5761009c565b8063094cd5ee1461009e578063101a3cc4146100c75780632fdec78814610104578063387da4f21461014157806340731c241461015d5761009c565b3661009c57005b005b3480156100aa57600080fd5b506100c560048036038101906100c09190611348565b610286565b005b3480156100d357600080fd5b506100ee60048036038101906100e991906113d3565b610450565b6040516100fb9190611422565b60405180910390f35b34801561011057600080fd5b5061012b6004803603810190610126919061143d565b610481565b6040516101389190611528565b60405180910390f35b61015b60048036038101906101569190611690565b610518565b005b34801561016957600080fd5b50610184600480360381019061017f9190611348565b610604565b6040516101919190611875565b60405180910390f35b3480156101a657600080fd5b506101af6109c9565b6040516101bc9190611422565b60405180910390f35b3480156101d157600080fd5b506101ec60048036038101906101e79190611897565b6109cf565b005b3480156101fa57600080fd5b50610203610b46565b6040516102109190611a3b565b60405180910390f35b34801561022557600080fd5b50610240600480360381019061023b9190611348565b610cd3565b604051610254989796959493929190611ab6565b60405180910390f35b34801561026957600080fd5b50610284600480360381019061027f9190611b57565b610fe3565b005b803373ffffffffffffffffffffffffffffffffffffffff166001600083815260200190815260200160002060000160009054906101000a900473ffffffffffffffffffffffffffffffffffffffff1673ffffffffffffffffffffffffffffffffffffffff16146102f557600080fd5b8160008111801561030857506000548111155b610347576040517f08c379a000000000000000000000000000000000000000000000000000000000815260040161033e90611caa565b60405180910390fd5b6004543a6103559190611cf9565b3373ffffffffffffffffffffffffffffffffffffffff163110156103ae576040517f08c379a00000000000000000000000000000000000000000000000000000000081526004016103a590611dad565b60405180910390fd5b60016000848152602001908152602001600020600080820160006101000a81549073ffffffffffffffffffffffffffffffffffffffff02191690556001820160006103f99190611246565b6002820160006104099190611246565b6003820160006104199190611246565b6004820160006104299190611246565b6005820160006104399190611246565b600682016000905560078201600090555050505050565b6002602052816000526040600020818154811061046c57600080fd5b90600052602060002001600091509150505481565b6060600260008373ffffffffffffffffffffffffffffffffffffffff1673ffffffffffffffffffffffffffffffffffffffff16815260200190815260200160002080548060200260200160405190810160405280929190818152602001828054801561050c57602002820191906000526020600020905b8154815260200190600101908083116104f8575b50505050509050919050565b6005604051806060016040528085815260200184815260200183815250908060018154018082558091505060019003906000526020600020906003020160009091909190915060008201518160000190816105739190611fd9565b5060208201518160010190816105899190611fd9565b50604082015181600201555050600360009054906101000a900473ffffffffffffffffffffffffffffffffffffffff1673ffffffffffffffffffffffffffffffffffffffff166108fc349081150290604051600060405180830381858888f193505050501580156105fe573d6000803e3d6000fd5b50505050565b61060c611286565b8160008111801561061f57506000548111155b61065e576040517f08c379a000000000000000000000000000000000000000000000000000000000815260040161065590611caa565b60405180910390fd5b60016000848152602001908152602001600020604051806101000160405290816000820160009054906101000a900473ffffffffffffffffffffffffffffffffffffffff1673ffffffffffffffffffffffffffffffffffffffff1673ffffffffffffffffffffffffffffffffffffffff1681526020016001820180546106e390611dfc565b80601f016020809104026020016040519081016040528092919081815260200182805461070f90611dfc565b801561075c5780601f106107315761010080835404028352916020019161075c565b820191906000526020600020905b81548152906001019060200180831161073f57829003601f168201915b5050505050815260200160028201805461077590611dfc565b80601f01602080910402602001604051908101604052809291908181526020018280546107a190611dfc565b80156107ee5780601f106107c3576101008083540402835291602001916107ee565b820191906000526020600020905b8154815290600101906020018083116107d157829003601f168201915b5050505050815260200160038201805461080790611dfc565b80601f016020809104026020016040519081016040528092919081815260200182805461083390611dfc565b80156108805780601f1061085557610100808354040283529160200191610880565b820191906000526020600020905b81548152906001019060200180831161086357829003601f168201915b5050505050815260200160048201805461089990611dfc565b80601f01602080910402602001604051908101604052809291908181526020018280546108c590611dfc565b80156109125780601f106108e757610100808354040283529160200191610912565b820191906000526020600020905b8154815290600101906020018083116108f557829003601f168201915b5050505050815260200160058201805461092b90611dfc565b80601f016020809104026020016040519081016040528092919081815260200182805461095790611dfc565b80156109a45780601f10610979576101008083540402835291602001916109a4565b820191906000526020600020905b81548152906001019060200180831161098757829003601f168201915b5050505050815260200160068201548152602001600782015481525050915050919050565b60005481565b823373ffffffffffffffffffffffffffffffffffffffff166001600083815260200190815260200160002060000160009054906101000a900473ffffffffffffffffffffffffffffffffffffffff1673ffffffffffffffffffffffffffffffffffffffff1614610a3e57600080fd5b83600081118015610a5157506000548111155b610a90576040517f08c379a0000000000000000000000000000000000000000000000000000000008152600401610a8790611caa565b60405180910390fd5b6004543a610a9e9190611cf9565b3373ffffffffffffffffffffffffffffffffffffffff16311015610af7576040517f08c379a0000000000000000000000000000000000000000000000000000000008152600401610aee90611dad565b60405180910390fd5b83600160008781526020019081526020016000206003019081610b1a9190611fd9565b5082600160008781526020019081526020016000206004019081610b3e9190611fd9565b505050505050565b60606005805480602002602001604051908101604052809291908181526020016000905b82821015610cca5783829060005260206000209060030201604051806060016040529081600082018054610b9d90611dfc565b80601f0160208091040260200160405190810160405280929190818152602001828054610bc990611dfc565b8015610c165780601f10610beb57610100808354040283529160200191610c16565b820191906000526020600020905b815481529060010190602001808311610bf957829003601f168201915b50505050508152602001600182018054610c2f90611dfc565b80601f0160208091040260200160405190810160405280929190818152602001828054610c5b90611dfc565b8015610ca85780601f10610c7d57610100808354040283529160200191610ca8565b820191906000526020600020905b815481529060010190602001808311610c8b57829003601f168201915b5050505050815260200160028201548152505081526020019060010190610b6a565b50505050905090565b60016020528060005260406000206000915090508060000160009054906101000a900473ffffffffffffffffffffffffffffffffffffffff1690806001018054610d1c90611dfc565b80601f0160208091040260200160405190810160405280929190818152602001828054610d4890611dfc565b8015610d955780601f10610d6a57610100808354040283529160200191610d95565b820191906000526020600020905b815481529060010190602001808311610d7857829003601f168201915b505050505090806002018054610daa90611dfc565b80601f0160208091040260200160405190810160405280929190818152602001828054610dd690611dfc565b8015610e235780601f10610df857610100808354040283529160200191610e23565b820191906000526020600020905b815481529060010190602001808311610e0657829003601f168201915b505050505090806003018054610e3890611dfc565b80601f0160208091040260200160405190810160405280929190818152602001828054610e6490611dfc565b8015610eb15780601f10610e8657610100808354040283529160200191610eb1565b820191906000526020600020905b815481529060010190602001808311610e9457829003601f168201915b505050505090806004018054610ec690611dfc565b80601f0160208091040260200160405190810160405280929190818152602001828054610ef290611dfc565b8015610f3f5780601f10610f1457610100808354040283529160200191610f3f565b820191906000526020600020905b815481529060010190602001808311610f2257829003601f168201915b505050505090806005018054610f5490611dfc565b80601f0160208091040260200160405190810160405280929190818152602001828054610f8090611dfc565b8015610fcd5780601f10610fa257610100808354040283529160200191610fcd565b820191906000526020600020905b815481529060010190602001808311610fb057829003601f168201915b5050505050908060060154908060070154905088565b6004543a610ff19190611cf9565b3373ffffffffffffffffffffffffffffffffffffffff1631101561104a576040517f08c379a000000000000000000000000000000000000000000000000000000000815260040161104190611dad565b60405180910390fd5b600083511161108e576040517f08c379a0000000000000000000000000000000000000000000000000000000008152600401611085906120f7565b60405180910390fd5b6000808154809291906110a090612117565b91905055506040518061010001604052803373ffffffffffffffffffffffffffffffffffffffff168152602001868152602001858152602001848152602001838152602001828152602001428152602001600054815250600160008054815260200190815260200160002060008201518160000160006101000a81548173ffffffffffffffffffffffffffffffffffffffff021916908373ffffffffffffffffffffffffffffffffffffffff16021790555060208201518160010190816111679190611fd9565b50604082015181600201908161117d9190611fd9565b5060608201518160030190816111939190611fd9565b5060808201518160040190816111a99190611fd9565b5060a08201518160050190816111bf9190611fd9565b5060c0820151816006015560e08201518160070155905050600260003373ffffffffffffffffffffffffffffffffffffffff1673ffffffffffffffffffffffffffffffffffffffff16815260200190815260200160002060005490806001815401808255809150506001900390600052602060002001600090919091909150555050505050565b50805461125290611dfc565b6000825580601f106112645750611283565b601f01602090049060005260206000209081019061128291906112e1565b5b50565b604051806101000160405280600073ffffffffffffffffffffffffffffffffffffffff168152602001606081526020016060815260200160608152602001606081526020016060815260200160008152602001600081525090565b5b808211156112fa5760008160009055506001016112e2565b5090565b6000604051905090565b600080fd5b600080fd5b6000819050919050565b61132581611312565b811461133057600080fd5b50565b6000813590506113428161131c565b92915050565b60006020828403121561135e5761135d611308565b5b600061136c84828501611333565b91505092915050565b600073ffffffffffffffffffffffffffffffffffffffff82169050919050565b60006113a082611375565b9050919050565b6113b081611395565b81146113bb57600080fd5b50565b6000813590506113cd816113a7565b92915050565b600080604083850312156113ea576113e9611308565b5b60006113f8858286016113be565b925050602061140985828601611333565b9150509250929050565b61141c81611312565b82525050565b60006020820190506114376000830184611413565b92915050565b60006020828403121561145357611452611308565b5b6000611461848285016113be565b91505092915050565b600081519050919050565b600082825260208201905092915050565b6000819050602082019050919050565b61149f81611312565b82525050565b60006114b18383611496565b60208301905092915050565b6000602082019050919050565b60006114d58261146a565b6114df8185611475565b93506114ea83611486565b8060005b8381101561151b57815161150288826114a5565b975061150d836114bd565b9250506001810190506114ee565b5085935050505092915050565b6000602082019050818103600083015261154281846114ca565b905092915050565b600080fd5b600080fd5b6000601f19601f8301169050919050565b7f4e487b7100000000000000000000000000000000000000000000000000000000600052604160045260246000fd5b61159d82611554565b810181811067ffffffffffffffff821117156115bc576115bb611565565b5b80604052505050565b60006115cf6112fe565b90506115db8282611594565b919050565b600067ffffffffffffffff8211156115fb576115fa611565565b5b61160482611554565b9050602081019050919050565b82818337600083830152505050565b600061163361162e846115e0565b6115c5565b90508281526020810184848401111561164f5761164e61154f565b5b61165a848285611611565b509392505050565b600082601f8301126116775761167661154a565b5b8135611687848260208601611620565b91505092915050565b6000806000606084860312156116a9576116a8611308565b5b600084013567ffffffffffffffff8111156116c7576116c661130d565b5b6116d386828701611662565b935050602084013567ffffffffffffffff8111156116f4576116f361130d565b5b61170086828701611662565b925050604061171186828701611333565b9150509250925092565b61172481611395565b82525050565b600081519050919050565b600082825260208201905092915050565b60005b83811015611764578082015181840152602081019050611749565b60008484015250505050565b600061177b8261172a565b6117858185611735565b9350611795818560208601611746565b61179e81611554565b840191505092915050565b6000610100830160008301516117c2600086018261171b565b50602083015184820360208601526117da8282611770565b915050604083015184820360408601526117f48282611770565b9150506060830151848203606086015261180e8282611770565b915050608083015184820360808601526118288282611770565b91505060a083015184820360a08601526118428282611770565b91505060c083015161185760c0860182611496565b5060e083015161186a60e0860182611496565b508091505092915050565b6000602082019050818103600083015261188f81846117a9565b905092915050565b6000806000606084860312156118b0576118af611308565b5b60006118be86828701611333565b935050602084013567ffffffffffffffff8111156118df576118de61130d565b5b6118eb86828701611662565b925050604084013567ffffffffffffffff81111561190c5761190b61130d565b5b61191886828701611662565b9150509250925092565b600081519050919050565b600082825260208201905092915050565b6000819050602082019050919050565b6000606083016000830151848203600086015261196b8282611770565b915050602083015184820360208601526119858282611770565b915050604083015161199a6040860182611496565b508091505092915050565b60006119b1838361194e565b905092915050565b6000602082019050919050565b60006119d182611922565b6119db818561192d565b9350836020820285016119ed8561193e565b8060005b85811015611a295784840389528151611a0a85826119a5565b9450611a15836119b9565b925060208a019950506001810190506119f1565b50829750879550505050505092915050565b60006020820190508181036000830152611a5581846119c6565b905092915050565b611a6681611395565b82525050565b600082825260208201905092915050565b6000611a888261172a565b611a928185611a6c565b9350611aa2818560208601611746565b611aab81611554565b840191505092915050565b600061010082019050611acc600083018b611a5d565b8181036020830152611ade818a611a7d565b90508181036040830152611af28189611a7d565b90508181036060830152611b068188611a7d565b90508181036080830152611b1a8187611a7d565b905081810360a0830152611b2e8186611a7d565b9050611b3d60c0830185611413565b611b4a60e0830184611413565b9998505050505050505050565b600080600080600060a08688031215611b7357611b72611308565b5b600086013567ffffffffffffffff811115611b9157611b9061130d565b5b611b9d88828901611662565b955050602086013567ffffffffffffffff811115611bbe57611bbd61130d565b5b611bca88828901611662565b945050604086013567ffffffffffffffff811115611beb57611bea61130d565b5b611bf788828901611662565b935050606086013567ffffffffffffffff811115611c1857611c1761130d565b5b611c2488828901611662565b925050608086013567ffffffffffffffff811115611c4557611c4461130d565b5b611c5188828901611662565b9150509295509295909350565b7f506f737420646f6573206e6f742065786973742e000000000000000000000000600082015250565b6000611c94601483611a6c565b9150611c9f82611c5e565b602082019050919050565b60006020820190508181036000830152611cc381611c87565b9050919050565b7f4e487b7100000000000000000000000000000000000000000000000000000000600052601160045260246000fd5b6000611d0482611312565b9150611d0f83611312565b9250828202611d1d81611312565b91508282048414831517611d3457611d33611cca565b5b5092915050565b7f4e6f7420656e6f75676820657468657220746f20706572666f726d207468697360008201527f206f7065726174696f6e00000000000000000000000000000000000000000000602082015250565b6000611d97602a83611a6c565b9150611da282611d3b565b604082019050919050565b60006020820190508181036000830152611dc681611d8a565b9050919050565b7f4e487b7100000000000000000000000000000000000000000000000000000000600052602260045260246000fd5b60006002820490506001821680611e1457607f821691505b602082108103611e2757611e26611dcd565b5b50919050565b60008190508160005260206000209050919050565b60006020601f8301049050919050565b600082821b905092915050565b600060088302611e8f7fffffffffffffffffffffffffffffffffffffffffffffffffffffffffffffffff82611e52565b611e998683611e52565b95508019841693508086168417925050509392505050565b6000819050919050565b6000611ed6611ed1611ecc84611312565b611eb1565b611312565b9050919050565b6000819050919050565b611ef083611ebb565b611f04611efc82611edd565b848454611e5f565b825550505050565b600090565b611f19611f0c565b611f24818484611ee7565b505050565b5b81811015611f4857611f3d600082611f11565b600181019050611f2a565b5050565b601f821115611f8d57611f5e81611e2d565b611f6784611e42565b81016020851015611f76578190505b611f8a611f8285611e42565b830182611f29565b50505b505050565b600082821c905092915050565b6000611fb060001984600802611f92565b1980831691505092915050565b6000611fc98383611f9f565b9150826002028217905092915050565b611fe28261172a565b67ffffffffffffffff811115611ffb57611ffa611565565b5b6120058254611dfc565b612010828285611f4c565b600060209050601f8311600181146120435760008415612031578287015190505b61203b8582611fbd565b8655506120a3565b601f19841661205186611e2d565b60005b8281101561207957848901518255600182019150602085019450602081019050612054565b868310156120965784890151612092601f891682611f9f565b8355505b6001600288020188555050505b505050505050565b7f5469746c65206d757374206e6f7420626520656d7074792e0000000000000000600082015250565b60006120e1601883611a6c565b91506120ec826120ab565b602082019050919050565b60006020820190508181036000830152612110816120d4565b9050919050565b600061212282611312565b91507fffffffffffffffffffffffffffffffffffffffffffffffffffffffffffffffff820361215457612153611cca565b5b60018201905091905056fea26469706673582212206431bcc28ee706db02ff5d05c1848c2357948343b47be22a75f2653009b9d9ba64736f6c63430008120033",
  "linkReferences": {},
  "deployedLinkReferences": {}
}