{
  "_format": "hh-sol-artifact-1",
  "contractName": "Post",
  "sourceName": "contracts/Post.sol",
  "abi": [
    {
      "inputs": [],
      "stateMutability": "payable",
      "type": "constructor"
    },
    {
      "inputs": [
        {
          "internalType": "uint256",
          "name": "",
          "type": "uint256"
        }
      ],
      "name": "articles",
      "outputs": [
        {
          "internalType": "address",
          "name": "authorAddress",
          "type": "address"
        },
        {
          "internalType": "string",
          "name": "authorAlias",
          "type": "string"
        },
        {
          "internalType": "string",
          "name": "category",
          "type": "string"
        },
        {
          "internalType": "string",
          "name": "title",
          "type": "string"
        },
        {
          "internalType": "string",
          "name": "contentHash",
          "type": "string"
        },
        {
          "internalType": "string",
          "name": "imageHash",
          "type": "string"
        },
        {
          "internalType": "uint256",
          "name": "timestamp",
          "type": "uint256"
        }
      ],
      "stateMutability": "view",
      "type": "function"
    },
    {
      "inputs": [
        {
          "internalType": "string",
          "name": "_authorAlias",
          "type": "string"
        },
        {
          "internalType": "string",
          "name": "_category",
          "type": "string"
        },
        {
          "internalType": "string",
          "name": "_title",
          "type": "string"
        },
        {
          "internalType": "string",
          "name": "_contentHash",
          "type": "string"
        },
        {
          "internalType": "string",
          "name": "_imageHash",
          "type": "string"
        }
      ],
      "name": "createPost",
      "outputs": [],
      "stateMutability": "nonpayable",
      "type": "function"
    },
    {
      "inputs": [
        {
          "internalType": "uint256",
          "name": "_postId",
          "type": "uint256"
        }
      ],
      "name": "deletePost",
      "outputs": [],
      "stateMutability": "nonpayable",
      "type": "function"
    },
    {
      "inputs": [
        {
          "internalType": "uint256",
          "name": "_postId",
          "type": "uint256"
        }
      ],
      "name": "getPost",
      "outputs": [
        {
          "components": [
            {
              "internalType": "address",
              "name": "authorAddress",
              "type": "address"
            },
            {
              "internalType": "string",
              "name": "authorAlias",
              "type": "string"
            },
            {
              "internalType": "string",
              "name": "category",
              "type": "string"
            },
            {
              "internalType": "string",
              "name": "title",
              "type": "string"
            },
            {
              "internalType": "string",
              "name": "contentHash",
              "type": "string"
            },
            {
              "internalType": "string",
              "name": "imageHash",
              "type": "string"
            },
            {
              "internalType": "uint256",
              "name": "timestamp",
              "type": "uint256"
            }
          ],
          "internalType": "struct Post.Article",
          "name": "",
          "type": "tuple"
        }
      ],
      "stateMutability": "view",
      "type": "function"
    },
    {
      "inputs": [],
      "name": "postId",
      "outputs": [
        {
          "internalType": "uint256",
          "name": "",
          "type": "uint256"
        }
      ],
      "stateMutability": "view",
      "type": "function"
    },
    {
      "inputs": [
        {
          "internalType": "uint256",
          "name": "_postId",
          "type": "uint256"
        },
        {
          "internalType": "string",
          "name": "_title",
          "type": "string"
        },
        {
          "internalType": "string",
          "name": "_contentHash",
          "type": "string"
        }
      ],
      "name": "updatePost",
      "outputs": [],
      "stateMutability": "nonpayable",
      "type": "function"
    }
  ],
  "bytecode": "0x60806040526000805562030d4060038190555033600260006101000a81548173ffffffffffffffffffffffffffffffffffffffff021916908373ffffffffffffffffffffffffffffffffffffffff16021790555061191e806100626000396000f3fe608060405234801561001057600080fd5b50600436106100625760003560e01c8063094cd5ee1461006757806340731c241461008357806360a0ecda146100b357806366d1cac9146100d1578063edcfafe6146100ed578063fc446bb414610123575b600080fd5b610081600480360381019061007c9190610e24565b61013f565b005b61009d60048036038101906100989190610e24565b610301565b6040516100aa9190610fe9565b60405180910390f35b6100bb6106bb565b6040516100c8919061101a565b60405180910390f35b6100eb60048036038101906100e6919061116a565b6106c1565b005b61010760048036038101906101029190610e24565b610838565b60405161011a979695949392919061124e565b60405180910390f35b61013d600480360381019061013891906112e0565b610b42565b005b803373ffffffffffffffffffffffffffffffffffffffff166001600083815260200190815260200160002060000160009054906101000a900473ffffffffffffffffffffffffffffffffffffffff1673ffffffffffffffffffffffffffffffffffffffff16146101ae57600080fd5b816000811180156101c157506000548111155b610200576040517f08c379a00000000000000000000000000000000000000000000000000000000081526004016101f790611433565b60405180910390fd5b6003543a61020e9190611482565b3373ffffffffffffffffffffffffffffffffffffffff16311015610267576040517f08c379a000000000000000000000000000000000000000000000000000000000815260040161025e90611536565b60405180910390fd5b60016000848152602001908152602001600020600080820160006101000a81549073ffffffffffffffffffffffffffffffffffffffff02191690556001820160006102b29190610d2a565b6002820160006102c29190610d2a565b6003820160006102d29190610d2a565b6004820160006102e29190610d2a565b6005820160006102f29190610d2a565b60068201600090555050505050565b610309610d6a565b8160008111801561031c57506000548111155b61035b576040517f08c379a000000000000000000000000000000000000000000000000000000000815260040161035290611433565b60405180910390fd5b600160008481526020019081526020016000206040518060e00160405290816000820160009054906101000a900473ffffffffffffffffffffffffffffffffffffffff1673ffffffffffffffffffffffffffffffffffffffff1673ffffffffffffffffffffffffffffffffffffffff1681526020016001820180546103df90611585565b80601f016020809104026020016040519081016040528092919081815260200182805461040b90611585565b80156104585780601f1061042d57610100808354040283529160200191610458565b820191906000526020600020905b81548152906001019060200180831161043b57829003601f168201915b5050505050815260200160028201805461047190611585565b80601f016020809104026020016040519081016040528092919081815260200182805461049d90611585565b80156104ea5780601f106104bf576101008083540402835291602001916104ea565b820191906000526020600020905b8154815290600101906020018083116104cd57829003601f168201915b5050505050815260200160038201805461050390611585565b80601f016020809104026020016040519081016040528092919081815260200182805461052f90611585565b801561057c5780601f106105515761010080835404028352916020019161057c565b820191906000526020600020905b81548152906001019060200180831161055f57829003601f168201915b5050505050815260200160048201805461059590611585565b80601f01602080910402602001604051908101604052809291908181526020018280546105c190611585565b801561060e5780601f106105e35761010080835404028352916020019161060e565b820191906000526020600020905b8154815290600101906020018083116105f157829003601f168201915b5050505050815260200160058201805461062790611585565b80601f016020809104026020016040519081016040528092919081815260200182805461065390611585565b80156106a05780601f10610675576101008083540402835291602001916106a0565b820191906000526020600020905b81548152906001019060200180831161068357829003601f168201915b50505050508152602001600682015481525050915050919050565b60005481565b823373ffffffffffffffffffffffffffffffffffffffff166001600083815260200190815260200160002060000160009054906101000a900473ffffffffffffffffffffffffffffffffffffffff1673ffffffffffffffffffffffffffffffffffffffff161461073057600080fd5b8360008111801561074357506000548111155b610782576040517f08c379a000000000000000000000000000000000000000000000000000000000815260040161077990611433565b60405180910390fd5b6003543a6107909190611482565b3373ffffffffffffffffffffffffffffffffffffffff163110156107e9576040517f08c379a00000000000000000000000000000000000000000000000000000000081526004016107e090611536565b60405180910390fd5b8360016000878152602001908152602001600020600301908161080c9190611762565b50826001600087815260200190815260200160002060040190816108309190611762565b505050505050565b60016020528060005260406000206000915090508060000160009054906101000a900473ffffffffffffffffffffffffffffffffffffffff169080600101805461088190611585565b80601f01602080910402602001604051908101604052809291908181526020018280546108ad90611585565b80156108fa5780601f106108cf576101008083540402835291602001916108fa565b820191906000526020600020905b8154815290600101906020018083116108dd57829003601f168201915b50505050509080600201805461090f90611585565b80601f016020809104026020016040519081016040528092919081815260200182805461093b90611585565b80156109885780601f1061095d57610100808354040283529160200191610988565b820191906000526020600020905b81548152906001019060200180831161096b57829003601f168201915b50505050509080600301805461099d90611585565b80601f01602080910402602001604051908101604052809291908181526020018280546109c990611585565b8015610a165780601f106109eb57610100808354040283529160200191610a16565b820191906000526020600020905b8154815290600101906020018083116109f957829003601f168201915b505050505090806004018054610a2b90611585565b80601f0160208091040260200160405190810160405280929190818152602001828054610a5790611585565b8015610aa45780601f10610a7957610100808354040283529160200191610aa4565b820191906000526020600020905b815481529060010190602001808311610a8757829003601f168201915b505050505090806005018054610ab990611585565b80601f0160208091040260200160405190810160405280929190818152602001828054610ae590611585565b8015610b325780601f10610b0757610100808354040283529160200191610b32565b820191906000526020600020905b815481529060010190602001808311610b1557829003601f168201915b5050505050908060060154905087565b6003543a610b509190611482565b3373ffffffffffffffffffffffffffffffffffffffff16311015610ba9576040517f08c379a0000000000000000000000000000000000000000000000000000000008152600401610ba090611536565b60405180910390fd5b6000835111610bed576040517f08c379a0000000000000000000000000000000000000000000000000000000008152600401610be490611880565b60405180910390fd5b600080815480929190610bff906118a0565b91905055506040518060e001604052803373ffffffffffffffffffffffffffffffffffffffff16815260200186815260200185815260200184815260200183815260200182815260200142815250600160008054815260200190815260200160002060008201518160000160006101000a81548173ffffffffffffffffffffffffffffffffffffffff021916908373ffffffffffffffffffffffffffffffffffffffff1602179055506020820151816001019081610cbd9190611762565b506040820151816002019081610cd39190611762565b506060820151816003019081610ce99190611762565b506080820151816004019081610cff9190611762565b5060a0820151816005019081610d159190611762565b5060c082015181600601559050505050505050565b508054610d3690611585565b6000825580601f10610d485750610d67565b601f016020900490600052602060002090810190610d669190610dbd565b5b50565b6040518060e00160405280600073ffffffffffffffffffffffffffffffffffffffff1681526020016060815260200160608152602001606081526020016060815260200160608152602001600081525090565b5b80821115610dd6576000816000905550600101610dbe565b5090565b6000604051905090565b600080fd5b600080fd5b6000819050919050565b610e0181610dee565b8114610e0c57600080fd5b50565b600081359050610e1e81610df8565b92915050565b600060208284031215610e3a57610e39610de4565b5b6000610e4884828501610e0f565b91505092915050565b600073ffffffffffffffffffffffffffffffffffffffff82169050919050565b6000610e7c82610e51565b9050919050565b610e8c81610e71565b82525050565b600081519050919050565b600082825260208201905092915050565b60005b83811015610ecc578082015181840152602081019050610eb1565b60008484015250505050565b6000601f19601f8301169050919050565b6000610ef482610e92565b610efe8185610e9d565b9350610f0e818560208601610eae565b610f1781610ed8565b840191505092915050565b610f2b81610dee565b82525050565b600060e083016000830151610f496000860182610e83565b5060208301518482036020860152610f618282610ee9565b91505060408301518482036040860152610f7b8282610ee9565b91505060608301518482036060860152610f958282610ee9565b91505060808301518482036080860152610faf8282610ee9565b91505060a083015184820360a0860152610fc98282610ee9565b91505060c0830151610fde60c0860182610f22565b508091505092915050565b600060208201905081810360008301526110038184610f31565b905092915050565b61101481610dee565b82525050565b600060208201905061102f600083018461100b565b92915050565b600080fd5b600080fd5b7f4e487b7100000000000000000000000000000000000000000000000000000000600052604160045260246000fd5b61107782610ed8565b810181811067ffffffffffffffff821117156110965761109561103f565b5b80604052505050565b60006110a9610dda565b90506110b5828261106e565b919050565b600067ffffffffffffffff8211156110d5576110d461103f565b5b6110de82610ed8565b9050602081019050919050565b82818337600083830152505050565b600061110d611108846110ba565b61109f565b9050828152602081018484840111156111295761112861103a565b5b6111348482856110eb565b509392505050565b600082601f83011261115157611150611035565b5b81356111618482602086016110fa565b91505092915050565b60008060006060848603121561118357611182610de4565b5b600061119186828701610e0f565b935050602084013567ffffffffffffffff8111156111b2576111b1610de9565b5b6111be8682870161113c565b925050604084013567ffffffffffffffff8111156111df576111de610de9565b5b6111eb8682870161113c565b9150509250925092565b6111fe81610e71565b82525050565b600082825260208201905092915050565b600061122082610e92565b61122a8185611204565b935061123a818560208601610eae565b61124381610ed8565b840191505092915050565b600060e082019050611263600083018a6111f5565b81810360208301526112758189611215565b905081810360408301526112898188611215565b9050818103606083015261129d8187611215565b905081810360808301526112b18186611215565b905081810360a08301526112c58185611215565b90506112d460c083018461100b565b98975050505050505050565b600080600080600060a086880312156112fc576112fb610de4565b5b600086013567ffffffffffffffff81111561131a57611319610de9565b5b6113268882890161113c565b955050602086013567ffffffffffffffff81111561134757611346610de9565b5b6113538882890161113c565b945050604086013567ffffffffffffffff81111561137457611373610de9565b5b6113808882890161113c565b935050606086013567ffffffffffffffff8111156113a1576113a0610de9565b5b6113ad8882890161113c565b925050608086013567ffffffffffffffff8111156113ce576113cd610de9565b5b6113da8882890161113c565b9150509295509295909350565b7f506f737420646f6573206e6f742065786973742e000000000000000000000000600082015250565b600061141d601483611204565b9150611428826113e7565b602082019050919050565b6000602082019050818103600083015261144c81611410565b9050919050565b7f4e487b7100000000000000000000000000000000000000000000000000000000600052601160045260246000fd5b600061148d82610dee565b915061149883610dee565b92508282026114a681610dee565b915082820484148315176114bd576114bc611453565b5b5092915050565b7f4e6f7420656e6f75676820657468657220746f20706572666f726d207468697360008201527f206f7065726174696f6e00000000000000000000000000000000000000000000602082015250565b6000611520602a83611204565b915061152b826114c4565b604082019050919050565b6000602082019050818103600083015261154f81611513565b9050919050565b7f4e487b7100000000000000000000000000000000000000000000000000000000600052602260045260246000fd5b6000600282049050600182168061159d57607f821691505b6020821081036115b0576115af611556565b5b50919050565b60008190508160005260206000209050919050565b60006020601f8301049050919050565b600082821b905092915050565b6000600883026116187fffffffffffffffffffffffffffffffffffffffffffffffffffffffffffffffff826115db565b61162286836115db565b95508019841693508086168417925050509392505050565b6000819050919050565b600061165f61165a61165584610dee565b61163a565b610dee565b9050919050565b6000819050919050565b61167983611644565b61168d61168582611666565b8484546115e8565b825550505050565b600090565b6116a2611695565b6116ad818484611670565b505050565b5b818110156116d1576116c660008261169a565b6001810190506116b3565b5050565b601f821115611716576116e7816115b6565b6116f0846115cb565b810160208510156116ff578190505b61171361170b856115cb565b8301826116b2565b50505b505050565b600082821c905092915050565b60006117396000198460080261171b565b1980831691505092915050565b60006117528383611728565b9150826002028217905092915050565b61176b82610e92565b67ffffffffffffffff8111156117845761178361103f565b5b61178e8254611585565b6117998282856116d5565b600060209050601f8311600181146117cc57600084156117ba578287015190505b6117c48582611746565b86555061182c565b601f1984166117da866115b6565b60005b82811015611802578489015182556001820191506020850194506020810190506117dd565b8683101561181f578489015161181b601f891682611728565b8355505b6001600288020188555050505b505050505050565b7f5469746c65206d757374206e6f7420626520656d7074792e0000000000000000600082015250565b600061186a601883611204565b915061187582611834565b602082019050919050565b600060208201905081810360008301526118998161185d565b9050919050565b60006118ab82610dee565b91507fffffffffffffffffffffffffffffffffffffffffffffffffffffffffffffffff82036118dd576118dc611453565b5b60018201905091905056fea264697066735822122020fc7973379520aea6ca9e5ffd08876403c1736676b7caae26c1fb269eb3e02b64736f6c63430008120033",
  "linkReferences": {},
  "deployedLinkReferences": {}
}