{
  "_format": "hh-sol-artifact-1",
  "contractName": "Post",
  "sourceName": "contracts/Post.sol",
  "abi": [
    {
      "inputs": [],
      "stateMutability": "payable",
      "type": "constructor"
    },
    {
      "inputs": [
        {
          "internalType": "uint256",
          "name": "",
          "type": "uint256"
        }
      ],
      "name": "articles",
      "outputs": [
        {
          "internalType": "address",
          "name": "authorAddress",
          "type": "address"
        },
        {
          "internalType": "string",
          "name": "authorAlias",
          "type": "string"
        },
        {
          "internalType": "string",
          "name": "category",
          "type": "string"
        },
        {
          "internalType": "string",
          "name": "title",
          "type": "string"
        },
        {
          "internalType": "string",
          "name": "contentHash",
          "type": "string"
        },
        {
          "internalType": "string",
          "name": "imageHash",
          "type": "string"
        },
        {
          "internalType": "uint256",
          "name": "timestamp",
          "type": "uint256"
        },
        {
          "internalType": "uint256",
          "name": "articleId",
          "type": "uint256"
        }
      ],
      "stateMutability": "view",
      "type": "function"
    },
    {
      "inputs": [
        {
          "internalType": "string",
          "name": "_authorAlias",
          "type": "string"
        },
        {
          "internalType": "string",
          "name": "_category",
          "type": "string"
        },
        {
          "internalType": "string",
          "name": "_title",
          "type": "string"
        },
        {
          "internalType": "string",
          "name": "_contentHash",
          "type": "string"
        },
        {
          "internalType": "string",
          "name": "_imageHash",
          "type": "string"
        }
      ],
      "name": "createPost",
      "outputs": [],
      "stateMutability": "nonpayable",
      "type": "function"
    },
    {
      "inputs": [
        {
          "internalType": "uint256",
          "name": "_postId",
          "type": "uint256"
        }
      ],
      "name": "deletePost",
      "outputs": [],
      "stateMutability": "nonpayable",
      "type": "function"
    },
    {
      "inputs": [
        {
          "internalType": "uint256",
          "name": "_postId",
          "type": "uint256"
        }
      ],
      "name": "getPost",
      "outputs": [
        {
          "components": [
            {
              "internalType": "address",
              "name": "authorAddress",
              "type": "address"
            },
            {
              "internalType": "string",
              "name": "authorAlias",
              "type": "string"
            },
            {
              "internalType": "string",
              "name": "category",
              "type": "string"
            },
            {
              "internalType": "string",
              "name": "title",
              "type": "string"
            },
            {
              "internalType": "string",
              "name": "contentHash",
              "type": "string"
            },
            {
              "internalType": "string",
              "name": "imageHash",
              "type": "string"
            },
            {
              "internalType": "uint256",
              "name": "timestamp",
              "type": "uint256"
            },
            {
              "internalType": "uint256",
              "name": "articleId",
              "type": "uint256"
            }
          ],
          "internalType": "struct Post.Article",
          "name": "",
          "type": "tuple"
        }
      ],
      "stateMutability": "view",
      "type": "function"
    },
    {
      "inputs": [],
      "name": "postId",
      "outputs": [
        {
          "internalType": "uint256",
          "name": "",
          "type": "uint256"
        }
      ],
      "stateMutability": "view",
      "type": "function"
    },
    {
      "inputs": [
        {
          "internalType": "uint256",
          "name": "_postId",
          "type": "uint256"
        },
        {
          "internalType": "string",
          "name": "_title",
          "type": "string"
        },
        {
          "internalType": "string",
          "name": "_contentHash",
          "type": "string"
        }
      ],
      "name": "updatePost",
      "outputs": [],
      "stateMutability": "nonpayable",
      "type": "function"
    }
  ],
  "bytecode": "0x60806040526000805562030d4060038190555033600260006101000a81548173ffffffffffffffffffffffffffffffffffffffff021916908373ffffffffffffffffffffffffffffffffffffffff160217905550611976806100626000396000f3fe608060405234801561001057600080fd5b50600436106100625760003560e01c8063094cd5ee1461006757806340731c241461008357806360a0ecda146100b357806366d1cac9146100d1578063edcfafe6146100ed578063fc446bb414610124575b600080fd5b610081600480360381019061007c9190610e59565b610140565b005b61009d60048036038101906100989190610e59565b61030a565b6040516100aa9190611032565b60405180910390f35b6100bb6106cf565b6040516100c89190611063565b60405180910390f35b6100eb60048036038101906100e691906111b3565b6106d5565b005b61010760048036038101906101029190610e59565b61084c565b60405161011b989796959493929190611297565b60405180910390f35b61013e60048036038101906101399190611338565b610b5c565b005b803373ffffffffffffffffffffffffffffffffffffffff166001600083815260200190815260200160002060000160009054906101000a900473ffffffffffffffffffffffffffffffffffffffff1673ffffffffffffffffffffffffffffffffffffffff16146101af57600080fd5b816000811180156101c257506000548111155b610201576040517f08c379a00000000000000000000000000000000000000000000000000000000081526004016101f89061148b565b60405180910390fd5b6003543a61020f91906114da565b3373ffffffffffffffffffffffffffffffffffffffff16311015610268576040517f08c379a000000000000000000000000000000000000000000000000000000000815260040161025f9061158e565b60405180910390fd5b60016000848152602001908152602001600020600080820160006101000a81549073ffffffffffffffffffffffffffffffffffffffff02191690556001820160006102b39190610d57565b6002820160006102c39190610d57565b6003820160006102d39190610d57565b6004820160006102e39190610d57565b6005820160006102f39190610d57565b600682016000905560078201600090555050505050565b610312610d97565b8160008111801561032557506000548111155b610364576040517f08c379a000000000000000000000000000000000000000000000000000000000815260040161035b9061148b565b60405180910390fd5b60016000848152602001908152602001600020604051806101000160405290816000820160009054906101000a900473ffffffffffffffffffffffffffffffffffffffff1673ffffffffffffffffffffffffffffffffffffffff1673ffffffffffffffffffffffffffffffffffffffff1681526020016001820180546103e9906115dd565b80601f0160208091040260200160405190810160405280929190818152602001828054610415906115dd565b80156104625780601f1061043757610100808354040283529160200191610462565b820191906000526020600020905b81548152906001019060200180831161044557829003601f168201915b5050505050815260200160028201805461047b906115dd565b80601f01602080910402602001604051908101604052809291908181526020018280546104a7906115dd565b80156104f45780601f106104c9576101008083540402835291602001916104f4565b820191906000526020600020905b8154815290600101906020018083116104d757829003601f168201915b5050505050815260200160038201805461050d906115dd565b80601f0160208091040260200160405190810160405280929190818152602001828054610539906115dd565b80156105865780601f1061055b57610100808354040283529160200191610586565b820191906000526020600020905b81548152906001019060200180831161056957829003601f168201915b5050505050815260200160048201805461059f906115dd565b80601f01602080910402602001604051908101604052809291908181526020018280546105cb906115dd565b80156106185780601f106105ed57610100808354040283529160200191610618565b820191906000526020600020905b8154815290600101906020018083116105fb57829003601f168201915b50505050508152602001600582018054610631906115dd565b80601f016020809104026020016040519081016040528092919081815260200182805461065d906115dd565b80156106aa5780601f1061067f576101008083540402835291602001916106aa565b820191906000526020600020905b81548152906001019060200180831161068d57829003601f168201915b5050505050815260200160068201548152602001600782015481525050915050919050565b60005481565b823373ffffffffffffffffffffffffffffffffffffffff166001600083815260200190815260200160002060000160009054906101000a900473ffffffffffffffffffffffffffffffffffffffff1673ffffffffffffffffffffffffffffffffffffffff161461074457600080fd5b8360008111801561075757506000548111155b610796576040517f08c379a000000000000000000000000000000000000000000000000000000000815260040161078d9061148b565b60405180910390fd5b6003543a6107a491906114da565b3373ffffffffffffffffffffffffffffffffffffffff163110156107fd576040517f08c379a00000000000000000000000000000000000000000000000000000000081526004016107f49061158e565b60405180910390fd5b8360016000878152602001908152602001600020600301908161082091906117ba565b508260016000878152602001908152602001600020600401908161084491906117ba565b505050505050565b60016020528060005260406000206000915090508060000160009054906101000a900473ffffffffffffffffffffffffffffffffffffffff1690806001018054610895906115dd565b80601f01602080910402602001604051908101604052809291908181526020018280546108c1906115dd565b801561090e5780601f106108e35761010080835404028352916020019161090e565b820191906000526020600020905b8154815290600101906020018083116108f157829003601f168201915b505050505090806002018054610923906115dd565b80601f016020809104026020016040519081016040528092919081815260200182805461094f906115dd565b801561099c5780601f106109715761010080835404028352916020019161099c565b820191906000526020600020905b81548152906001019060200180831161097f57829003601f168201915b5050505050908060030180546109b1906115dd565b80601f01602080910402602001604051908101604052809291908181526020018280546109dd906115dd565b8015610a2a5780601f106109ff57610100808354040283529160200191610a2a565b820191906000526020600020905b815481529060010190602001808311610a0d57829003601f168201915b505050505090806004018054610a3f906115dd565b80601f0160208091040260200160405190810160405280929190818152602001828054610a6b906115dd565b8015610ab85780601f10610a8d57610100808354040283529160200191610ab8565b820191906000526020600020905b815481529060010190602001808311610a9b57829003601f168201915b505050505090806005018054610acd906115dd565b80601f0160208091040260200160405190810160405280929190818152602001828054610af9906115dd565b8015610b465780601f10610b1b57610100808354040283529160200191610b46565b820191906000526020600020905b815481529060010190602001808311610b2957829003601f168201915b5050505050908060060154908060070154905088565b6003543a610b6a91906114da565b3373ffffffffffffffffffffffffffffffffffffffff16311015610bc3576040517f08c379a0000000000000000000000000000000000000000000000000000000008152600401610bba9061158e565b60405180910390fd5b6000835111610c07576040517f08c379a0000000000000000000000000000000000000000000000000000000008152600401610bfe906118d8565b60405180910390fd5b600080815480929190610c19906118f8565b91905055506040518061010001604052803373ffffffffffffffffffffffffffffffffffffffff168152602001868152602001858152602001848152602001838152602001828152602001428152602001600054815250600160008054815260200190815260200160002060008201518160000160006101000a81548173ffffffffffffffffffffffffffffffffffffffff021916908373ffffffffffffffffffffffffffffffffffffffff1602179055506020820151816001019081610ce091906117ba565b506040820151816002019081610cf691906117ba565b506060820151816003019081610d0c91906117ba565b506080820151816004019081610d2291906117ba565b5060a0820151816005019081610d3891906117ba565b5060c0820151816006015560e082015181600701559050505050505050565b508054610d63906115dd565b6000825580601f10610d755750610d94565b601f016020900490600052602060002090810190610d939190610df2565b5b50565b604051806101000160405280600073ffffffffffffffffffffffffffffffffffffffff168152602001606081526020016060815260200160608152602001606081526020016060815260200160008152602001600081525090565b5b80821115610e0b576000816000905550600101610df3565b5090565b6000604051905090565b600080fd5b600080fd5b6000819050919050565b610e3681610e23565b8114610e4157600080fd5b50565b600081359050610e5381610e2d565b92915050565b600060208284031215610e6f57610e6e610e19565b5b6000610e7d84828501610e44565b91505092915050565b600073ffffffffffffffffffffffffffffffffffffffff82169050919050565b6000610eb182610e86565b9050919050565b610ec181610ea6565b82525050565b600081519050919050565b600082825260208201905092915050565b60005b83811015610f01578082015181840152602081019050610ee6565b60008484015250505050565b6000601f19601f8301169050919050565b6000610f2982610ec7565b610f338185610ed2565b9350610f43818560208601610ee3565b610f4c81610f0d565b840191505092915050565b610f6081610e23565b82525050565b600061010083016000830151610f7f6000860182610eb8565b5060208301518482036020860152610f978282610f1e565b91505060408301518482036040860152610fb18282610f1e565b91505060608301518482036060860152610fcb8282610f1e565b91505060808301518482036080860152610fe58282610f1e565b91505060a083015184820360a0860152610fff8282610f1e565b91505060c083015161101460c0860182610f57565b5060e083015161102760e0860182610f57565b508091505092915050565b6000602082019050818103600083015261104c8184610f66565b905092915050565b61105d81610e23565b82525050565b60006020820190506110786000830184611054565b92915050565b600080fd5b600080fd5b7f4e487b7100000000000000000000000000000000000000000000000000000000600052604160045260246000fd5b6110c082610f0d565b810181811067ffffffffffffffff821117156110df576110de611088565b5b80604052505050565b60006110f2610e0f565b90506110fe82826110b7565b919050565b600067ffffffffffffffff82111561111e5761111d611088565b5b61112782610f0d565b9050602081019050919050565b82818337600083830152505050565b600061115661115184611103565b6110e8565b90508281526020810184848401111561117257611171611083565b5b61117d848285611134565b509392505050565b600082601f83011261119a5761119961107e565b5b81356111aa848260208601611143565b91505092915050565b6000806000606084860312156111cc576111cb610e19565b5b60006111da86828701610e44565b935050602084013567ffffffffffffffff8111156111fb576111fa610e1e565b5b61120786828701611185565b925050604084013567ffffffffffffffff81111561122857611227610e1e565b5b61123486828701611185565b9150509250925092565b61124781610ea6565b82525050565b600082825260208201905092915050565b600061126982610ec7565b611273818561124d565b9350611283818560208601610ee3565b61128c81610f0d565b840191505092915050565b6000610100820190506112ad600083018b61123e565b81810360208301526112bf818a61125e565b905081810360408301526112d3818961125e565b905081810360608301526112e7818861125e565b905081810360808301526112fb818761125e565b905081810360a083015261130f818661125e565b905061131e60c0830185611054565b61132b60e0830184611054565b9998505050505050505050565b600080600080600060a0868803121561135457611353610e19565b5b600086013567ffffffffffffffff81111561137257611371610e1e565b5b61137e88828901611185565b955050602086013567ffffffffffffffff81111561139f5761139e610e1e565b5b6113ab88828901611185565b945050604086013567ffffffffffffffff8111156113cc576113cb610e1e565b5b6113d888828901611185565b935050606086013567ffffffffffffffff8111156113f9576113f8610e1e565b5b61140588828901611185565b925050608086013567ffffffffffffffff81111561142657611425610e1e565b5b61143288828901611185565b9150509295509295909350565b7f506f737420646f6573206e6f742065786973742e000000000000000000000000600082015250565b600061147560148361124d565b91506114808261143f565b602082019050919050565b600060208201905081810360008301526114a481611468565b9050919050565b7f4e487b7100000000000000000000000000000000000000000000000000000000600052601160045260246000fd5b60006114e582610e23565b91506114f083610e23565b92508282026114fe81610e23565b91508282048414831517611515576115146114ab565b5b5092915050565b7f4e6f7420656e6f75676820657468657220746f20706572666f726d207468697360008201527f206f7065726174696f6e00000000000000000000000000000000000000000000602082015250565b6000611578602a8361124d565b91506115838261151c565b604082019050919050565b600060208201905081810360008301526115a78161156b565b9050919050565b7f4e487b7100000000000000000000000000000000000000000000000000000000600052602260045260246000fd5b600060028204905060018216806115f557607f821691505b602082108103611608576116076115ae565b5b50919050565b60008190508160005260206000209050919050565b60006020601f8301049050919050565b600082821b905092915050565b6000600883026116707fffffffffffffffffffffffffffffffffffffffffffffffffffffffffffffffff82611633565b61167a8683611633565b95508019841693508086168417925050509392505050565b6000819050919050565b60006116b76116b26116ad84610e23565b611692565b610e23565b9050919050565b6000819050919050565b6116d18361169c565b6116e56116dd826116be565b848454611640565b825550505050565b600090565b6116fa6116ed565b6117058184846116c8565b505050565b5b818110156117295761171e6000826116f2565b60018101905061170b565b5050565b601f82111561176e5761173f8161160e565b61174884611623565b81016020851015611757578190505b61176b61176385611623565b83018261170a565b50505b505050565b600082821c905092915050565b600061179160001984600802611773565b1980831691505092915050565b60006117aa8383611780565b9150826002028217905092915050565b6117c382610ec7565b67ffffffffffffffff8111156117dc576117db611088565b5b6117e682546115dd565b6117f182828561172d565b600060209050601f8311600181146118245760008415611812578287015190505b61181c858261179e565b865550611884565b601f1984166118328661160e565b60005b8281101561185a57848901518255600182019150602085019450602081019050611835565b868310156118775784890151611873601f891682611780565b8355505b6001600288020188555050505b505050505050565b7f5469746c65206d757374206e6f7420626520656d7074792e0000000000000000600082015250565b60006118c260188361124d565b91506118cd8261188c565b602082019050919050565b600060208201905081810360008301526118f1816118b5565b9050919050565b600061190382610e23565b91507fffffffffffffffffffffffffffffffffffffffffffffffffffffffffffffffff8203611935576119346114ab565b5b60018201905091905056fea26469706673582212203f1bf42e14680115347c66d7e98271d4bb8ef50c49728341e57741a0fe3d041364736f6c63430008120033",
  "linkReferences": {},
  "deployedLinkReferences": {}
}